:0200000058287E
:0E0006008312031352088A005108820008007A
:10001400831603139818102800000A28831258081E
:040024009900080037
:10002800831603139816903083129800831686144B
:10003800061183128C1E23281A08F0001D280800B8
:10004800831203131A08F100981C2C28181218168A
:060058007108F000080031
:10005E0003208A110A128000840AD10A0319D20AD7
:08006E00F003031D2F28080018
:1000760083120313D701550884000008D6005608DA
:10008600003A031950285608D8000A20D70A5708FC
:0C009600550784000008D600422808002E
:0E00A2000030831203138C1A0130F0000800A6
:1000B0004E210730831203139F008316850183129C
:1000C0008501CF01D001D301D4011A30FB005E308D
:1000D000FC006E30FD00FD0B6B28FC0B6B28FB0B4E
:1000E0006B2800001930831699001815142003306E
:1000F000FB008A30FC005530FD00FD0B7D28FC0B19
:100100007D28FB0B7D28000000002030D5003B201F
:100110000A30D8000A200D30D8000A20512070087B
:10012000013A031D182924207008CE007008683A8F
:10013000031DA82885144830D5003B200A30D8007C
:100140000A200D30D8000A200130CF000030D00046
:100150004E08693A031DB82885104630D5003B206B
:100160000A30D8000A200D30D8000A20CF01D00173
:100170004E086A3A031DD72800305006031DC228D6
:1001800001304F06031DCE284C30D5003B200A30ED
:10019000D8000A200D30D8000A20D7284A30D500D0
:1001A0003B200A30D8000A200D30D8000A204E0823
:1001B000633A031DE92885174030D5003B200A30FB
:1001C000D8000A200D30D8000A200130D3000030BA
:1001D000D4004E08643A031DF92885133E30D5003B
:1001E0003B200A30D8000A200D30D8000A20D30165
:1001F000D4014E08653A031D182900305406031D2A
:10020000032901305306031D0F294430D5003B203C
:100210000A30D8000A200D30D8000A2018294230B0
:10022000D5003B200A30D8000A200D30D8000A2023
:040230008E281929D2
:10029C00203084002E3083120313F0001F30D10065
:0802AC000130D2002F200800F0
:10023E0020345834623465346534203443346F349A
:10024E006E346E3465346334743469346F346E34A2
:10025E0020345334753463346334653473347334F7
:0C026E00663475346C34213420340034C4
:04027A0030340034E8
:04027E0031340034E3
:0402820030340034E0
:0402860031340034DB
:04028A0030340034D8
:04028E0031340034D3
:0402920030340034D0
:0402960031340034CB
:02400E00582137
:00000001FF
